:020000040000fa
:080000000002040000000000f2
:020000040000fa
:100400000f8720000eff20000e0188000000000072
:100410000c00070060b3200001002000110007005d
:10042000000020000000e000020032000000020096
:1004300000000000040b0200000000000040da0091
:100440000000fe004440a900000720000000e0007a
:100450000300320000002000a00188004440a800f2
:100460000000060091018800800078000000eb0089
:1004700015003700e280400032a0b4009101ba00bc
:10048000e280400032a0b4009102ba00e280400055
:1004900032a0b4000002eb00472bde00f507b200eb
:1004a000602ce10004003a000059eb008301e900f0
:1004b000fdff3e00040037006128e100010032002a
:1004c0000082eb00040007001101ba000200e00006
:1004d000e8ff3a00000006003159ba008301e90044
:1004e0000c0032002159ba008301e90008003200f3
:1004f0000400e00003003a00e280400032a0b400b3
:10050000f5ff370011d9ba008301e900faff3a007c
:100510008100e800e180400032a0b4000000060045
:100520000040da000000fe0003f0a200889fbe0039
:100530008a9fbe008c1f7800e4000700eb003300a8
:100540006450e1004f0032006420e10052003200ac
:1005500003826c0007003b000905d0000306d000b1
:10056000820f54000c065d000200390002003200c8
:1005700089017800030678008582550004003d005b
:100580000003fd008103fd008502ea008b85420027
:10059000840f720002003b0060001000e080180031
:1005a0006011b8000005eb007a28e1000a0039006c
:1005b00006007800c75ddd00f707b2008780750090
:1005c0002d003700828171000a017800610560000a
:1005d0008180d1000080d3008502e900f9ff3b0053
:1005e000060440008784480002003b0060041400b9
:1005f000e0841c000988a300070032008a81710092
:1006000082817100610164008904d1000884d300f3
:100610008b05e800170037000978a30013003a00a3
:100620000b00e000130034008b05e90008044400cf
:1006300089844c000a4474000978a3000d003a0034
:100640000b00e000070034008b05e90008044400bb
:1006500089844c0001003a000b0020000978a300b7
:10066000f7ff32000001eb000200370082817100c9
:100670000a0178005a0007000cf0a70001f0a00062
:10068000a30037006420e10002003a00838f6c0071
:10069000a30033000801be000200be009c0037002a
:1006a00014002000d5003700f4ff2f00d3003700de
:1006b0000001be00700007000470a70003f0a10055
:1006c0006509b100160032000d0035006828e10010
:1006d00006003500f0ff2f00f1ff27000300e000c7
:1006e00013003b000100280000000500000040004e
:1006f000818048008502e900fcff3a0008003700cd
:10070000f88f420002003c008000eb000000050072
:100710008100d1000080d3008502e800fcff3a0090
:100720000300e00002003b0060001000e0801800c1
:1007300000000600889fbe008a9fbe000105780069
:100740000100e0000400350008003c000000e0006b
:10075000200032000500370060001000e080180023
:1007600002003b0001f02c001a0037000004be001c
:100770006011b8006b0920000982cf000200390027
:100780000882cf000441b000694252000e003200de
:1007900008003b0082817100610164008904d1007e
:1007a0000884d3008b05e8000442e800f9ff3a0012
:1007b000050037000804440089844c008b05e900db
:1007c0000442e900fbff3a00050007000af0a70019
:1007d00001f0a0004f05be004f04be00000006005f
:1007e00081002000618055000b003d000b002000bf
:1007f00061fe2f000100e1001d00340082817100c4
:10080000610164008904d1000884d3000000e8007d
:10081000faff3a00710020006100640003007000dc
:10082000020060000900320061044400e0844c00d2
:100830000988a500050032008b05e8006808e10082
:1008400002003a008904d1000884d300f20f20008e
:100850000258e10005003d00c75ddd00f907b20068
:100860008980750008007800000006000bf827005a
:100870008b00780000000500c70ade00f107b20017
:10088000f50fb20008003200e1cf42000200320052
:100890000170a00024000500810f700001003200eb
:1008a0000408050044000500810f700002003a00b2
:1008b000140005008502e9000000400081c04800e6
:1008c000fcff3b000170a000240005000004be00f6
:1008d000e9ff07000003be000405be000200be00e1
:1008e000e5ff0700844f7500000006000200be000f
:1008f0006450e100050036006420e100020036008b
:100900000968a30001003a000800be000160a000d1
:100910004f0678004f05be004f04be0000000600e1
:10092000f0ff2f00f1ff2700f9ff3700889fbe007e
:100930008a9fbe008c1f7800e4ff0700ebff3300a6
:1009400003866c006450e100240032006420e10062
:10095000270032006150e100220032006120e100f6
:10096000210032008b854200eb07b1000134b80052
:10097000003ab8000804420089844a00013ab800ed
:100980000030b8008880400009014a0004003300ac
:100990000000400081804800020149008b05e90009
:1009a000c909dd008301700001003200130020003e
:1009b000c814de004814dd004709de001200b20052
:1009c000c808de000884700085ff070001f0a10060
:1009d0000cf0a70001f0a000cdff37006120e1007e
:1009e000cfff32000801be000200be00f7ff370053
:1009f0006150e100fcff3a00c9ff3700889fbe004c
:100a00008a9fbe00841f7800b0ff07004f00780067
:100a100011003300f0ff2f00838f6c0006003b00b5
:100a2000040565000a00a7000800370009f0a600c9
:100a30001000200008003700820f5400838f5c00f4
:100a4000030039001000200001003e0000002000db
:100a500009f0a7000000ea004f05be004f04be00e9
:080a60000000e00000000600a8
:020000040000fa
:0200000401f009
:04000000ffff0000fe
:020000040000fa
:0200000401f009
:04000800ffff0000f6
:020000040000fa
:0200000401f009
:04000c001bff0000d6
:020000040000fa
:0200000401f009
:040010009aff000053
:020000040000fa
:0200000401f009
:040014005fff00008a
:020000040000fa
:0200000401f009
:04001800b7ff00002e
:020000040000fa
:0200000401f009
:04001c00feff0000e3
:020000040000fa
:1000080090020000900200009002000090020000a0
:100018009002000090020000900200009002000090
:10002800900200009002000090020000be0900004b
:100038009002000090020000900200009002000070
:100048009002000090020000900200009002000060
:100058009002000090020000900200009002000050
:100068009002000090020000900200009002000040
:100078009002000090020000900200009002000030
:100088009002000090020000900200009002000020
:100098009002000090020000ec07000090020000af
:1000a8009002000090020000900200009002000000
:1000b80090020000900200009002000090020000f0
:1000c80090020000900200009002000090020000e0
:1000d80090020000900200009002000090020000d0
:1000e80090020000900200009002000090020000c0
:1000f80090020000900200009002000090020000b0
:10010800900200009002000090020000900200009f
:10011800900200009002000090020000900200008f
:10012800900200009002000090020000900200007f
:10013800900200009002000090020000900200006f
:10014800900200009002000090020000900200005f
:10015800900200009002000090020000900200004f
:10016800900200009002000090020000900200003f
:10017800900200009002000090020000900200002f
:10018800900200009002000090020000900200001f
:10019800900200009002000090020000900200000f
:1001a80090020000900200009002000090020000ff
:1001b80090020000900200009002000090020000ef
:1001c80090020000900200009002000090020000df
:1001d80090020000900200009002000090020000cf
:1001e80090020000900200009002000090020000bf
:0801f8009002000090020000db
:020000040000fa
:10020800900200009002000090020000900200009e
:10021800900200009002000090020000900200008e
:10022800900200009002000090020000be09000049
:10023800900200009002000090020000900200006e
:10024800900200009002000090020000900200005e
:10025800900200009002000090020000900200004e
:10026800900200009002000090020000900200003e
:10027800900200009002000090020000900200002e
:10028800900200009002000090020000900200001e
:100298009002000090020000ec07000090020000ad
:1002a80090020000900200009002000090020000fe
:1002b80090020000900200009002000090020000ee
:1002c80090020000900200009002000090020000de
:1002d80090020000900200009002000090020000ce
:1002e80090020000900200009002000090020000be
:1002f80090020000900200009002000090020000ae
:10030800900200009002000090020000900200009d
:10031800900200009002000090020000900200008d
:10032800900200009002000090020000900200007d
:10033800900200009002000090020000900200006d
:10034800900200009002000090020000900200005d
:10035800900200009002000090020000900200004d
:10036800900200009002000090020000900200003d
:10037800900200009002000090020000900200002d
:10038800900200009002000090020000900200001d
:10039800900200009002000090020000900200000d
:1003a80090020000900200009002000090020000fd
:1003b80090020000900200009002000090020000ed
:1003c80090020000900200009002000090020000dd
:1003d80090020000900200009002000090020000cd
:1003e80090020000900200009002000090020000bd
:0803f8009002000090020000d9
:020000040000fa
:100a6800f4050000ce5e0000ce5e0000020000002b
:100a7800ce5e0000ce5e0000020000000200000012
:100a880002000000ce5e0000ce5e00000200000002
:100a98000200000002000000727700007277000078
:100aa80002000000ce5e0000ce5e000002000000e2
:100ab8000200000002000000b84f0000b84f00001c
:100ac8000200000002000000020000000200000016
:100ad80002000000709f0000709f0000709f0000df
:100ae800709f00005265000061640000203a000019
:100af80020660000696e000069730000680000004d
:100b08005772000069740000652000003a20000058
:100b1800666900006e69000073680000000000004c
:100b2800436f00006e6e000065630000746900008a
:100b38006f6e0000203a0000204f00004b000000bc
:020000040000fa
:100b48000000fa000000eb00c01188000000eb0074
:100b58008011880031a2a9003182a9003162a90060
:100b68001123200091407800c0cfb30000c060007e
:100b780031e2b70030e2a90030c2a90030a2a800d3
:100b88003082a9003062a90001232000914078003a
:100b980090cfb30000c0600030e2b7003002a90077
:100ba8000000eb009011880033c2a90031e2a800d0
:100bb800310b20009140780080cfb30000c0600066
:100bc8000004a000b3e0b7003342a80097e0a900f2
:100bd80097c0a8000080fa00000006000200fa0092
:100be800004f780033c2bf00624060000004e0009c
:100bf800fcff3a001e00fb00a011880033c2bf00b2
:100c0800614060000004e000fcff32000080fa0050
:100c1800000006000400fa00100798000000eb002e
:100c2800000f7800070037001e0078008000780069
:100c38001e0090000080400010407800e7ff070089
:100c48001e0fe8001e007800800078001e0090004b
:100c580000804000104078000004e000f2ff3a00f5
:100c68000080fa00000006000600fa00100798004d
:100c7800210798000000eb00000f780007003700fc
:100c88001e007800800078001e0090000080400060
:100c980010407800d1ff07001e0fe8002e009000da
:100ca8009e0f1000f6ff35000080fa0000000600d5
:100cb8000200fa00000f780000cab300c7ff07005f
:100cc8001e007800d3ff07000040eb00c3ff0700b9
:100cd8000080fa00000006000000fa005040800082
:100ce800cf80de0091fe0700f226210033a8230002
:100cf8000cff070040428800514288006040800095
:100d0800cf80de0089fe0700f226210033a82300e9
:100d180004ff07006042880071428800704080002c
:100d2800cf80de0081fe0700f226210033a82300d1
:100d3800fcfe0700804288009142880080408000c5
:100d4800cf80de0079fe0700f226210033a82300b9
:100d5800f4fe0700a0428800b1428800904080005d
:100d6800cf80de0071fe0700f226210033a82300a1
:100d7800ecfe0700c0428800d14288000080fa00db
:100d8800000006000600fa00b0118000004f78004d
:100d98001e4078000004e0003d003d001e80fb007e
:100da8004600de00610060000004e000060032003a
:100db8001e80fb007f006000204088000000eb00e0
:100dc80030408800800037001e80fb007f006000f4
:100dd80020408800204080008040780000c8b30090
:100de80080c070000e00e8000148780020408000b4
:100df80080004000808020000080400010007800c3
:100e08004c80de00ef4060000e00e80011409800c2
:100e1800204080008000400080802000008040004a
:100e2800100078004880de00ef4060000e00e80007
:100e380021409800204080008000400080802000f1
:100e480000804000100078004480de00ef40600021
:100e58000e00e800314098002040800080004000eb
:100e6800808020000080400010007800ef40600083
:100e78000e00e800414098000e00e80051002000f4
:100e880079ff07006057280089ff07004e003700e8
:100e9800314080001e417800008020000080400022
:100ea800024878000100e8003040880030408000a7
:100eb800e40f500044003a002040800080004000c9
:100ec80080802000808040000000eb0080087800cf
:100ed8002340800020408000800040008080200067
:100ee800008040009000780000c8bf000000fb00b0
:100ef8006f0060004c00dd000081700083804100bd
:100f08008080200000804000020878002340800094
:100f18002040800080004000808020000080400049
:100f28009000780001c8bf000000fb006f0060005f
:100f38004800dd000081700083804100808020002f
:100f48000080400002087800234080002040800094
:100f580080004000808020000080400090007800e1
:100f680002c8bf000000fb006f0060004400dd0005
:100f78000081700083804100808020000080400054
:100f88000208780023408000204080008000400054
:100f980080802000008040009000780003c8bf00d7
:100fa8000000fb006f00600000817000838041003a
:100fb80080802000008040000208780046ff07007b
:100fc800405828003aff07000080fa000000060099
:100fd8003600f800809fbe00829fbe00849fbe003e
:100fe800869fbe000000fa0066ff070087c0a900c0
:100ff8000080fa004f03be004f02be004f01be0042
:101008004f00be003600f900004006000000fa005c
:101018000000eb00200888000000eb0000088800b2
:101028000421a900411020009140780000c3b300ba
:1010380000c0700004e1b700e00320001008880039
:10104800510a200091407800f0c8b30000c0600049
:1010580001c2b30001407000a5e0b7008460a90098
:101068009460a80005e1a8000080fa0000000600ce
:101078000600fa00c00020000a010700000f7800ef
:10108800a02984001e005000200798002e00900020
:10109800b0408800ae009000603b2000808f500078
:1010a80020003c00ae00900040d42f00808f5000fc
:1010b8001c003500ae00900080192000808f500081
:1010c800020034008019200020079800ae0090002c
:1010d80080e62f00808f500002003d0080e62f0040
:1010e800200798002e0090000000e00006003d0058
:1010f8002e0090000000ea0010079800cc82a9009a
:10110800c482a800040037002e0090001007980041
:10111800cc82a800c482a9001e0090000b01070021
:10112800020037000000eb00080107000080fa0009
:10113800000006000400fa00889fbe00a029840071
:1011480000047800c0002000d6000700000054000a
:10115800100798009e009000603b2000808f500090
:101168006d003c009e00900040d42f00808f5000fe
:1011780069003500a8428000b94280001e00900036
:10118800cf80de0069fd07000001be000800be0038
:10119800e4fd0700c28520000089be0044428000ab
:1011a80055428000c08520001001be000400be002a
:1011b800dcfd07000004be00644280007542800028
:1011c800c085200020019000b00190000400be00fe
:1011d800d4fd07000001be000800be00d0fc0700d7
:1011e8000004be00844280009542800040862000b2
:1011f80020019000b00190000400be00c9fd070066
:101208000001be000800be00c6fc070042862000a0
:101218000089be00408620001000be0042862000e3
:101228002001980031019800c08520001000be0000
:10123800c2852000200198003101980040862000d6
:101248001000be00c2428000d3428000b5fd0700f6
:10125800428620000089be00408620001000be00a3
:1012680002002000c33c24000dfd07000000e00040
:1012780001003c00040037004286200000002000e6
:10128800c13c24000089be00408620001000be003a
:1012980002002000c33c2c00fffc07000000e00017
:1012a80001003500040037004286200000002000bd
:1012b800c13c2c000089be00408620001000be0002
:1012c8006011b800f4fc07000000e00001003500e0
:1012d80008003700408620001000be0001f0a20080
:1012e800f1fc0700000f7800cc82a900c482a80096
:1012f80006003700408620001000be00eafc070008
:10130800000f7800cc82a800c482a9001e007800d3
:101318008e000700020037000000eb008b0007007a
:101328004f04be000080fa00000006000000fa002a
:101338007143800001814000605328000000410093
:10134800100178000100e80070438800020078006e
:10135800850007007143800000022000808f500044
:10136800020034000000eb00780007000080fa005b
:10137800000006003600f800809fbe00829fbe0075
:10138800849fbe00869fbe000000fa00a040800037
:101398000000e00011003200604380008000780007
:1013a8000000e9006043880001007800670007003a
:1013b800cc82a800c482a900604380000000e0003d
:1013c8000c003d000000eb006043880000fa20009c
:1013d80010088800d5ff070006003700404080004d
:1013e8000000e0000200320052ff07000100370051
:1013f8001fff07008460a9000080fa004f03be00a9
:101408004f02be004f01be004f00be003600f9007b
:10141800004006000000fa0040c3bf006f406000b3
:1014280001c7b3000140700040e3b7001134200049
:1014380091407800c0cfb30000c0600041e3b7001e
:101448004043a80043c3bf00f043b20043e3b700e2
:10145800213420009140780030c8b30000c06000fb
:1014680042e3b700f0c3b30044e3b70045c3bf008d
:10147800f041b30045e3b70045e3a90049c3bf0005
:101488007f40600049e3b70041e3a800011a8000eb
:101498000040200000807000001a88000080fa00d8
:1014a800000006000200fa00000f78001e00780015
:1014b8007f4060007f4160008134200091407800c7
:1014c80000ceb30000c060000240700048e3b700df
:1014d80040c3bf00614060000004e000fcff320030
:1014e8004003a900001880000080fa0000000600f0
:1014f8000000fa000000eb00800c88000000eb0000
:10150800900c880091c1bf00c041b30091e1b700c1
:10151800f00f2000b00c8800f01f2000a00c8800fd
:1015280092c1bf00f041b30092e1b7000119200059
:101538009140780080cfb30000c060006040b300e5
:1015480090e1b7000080fa00000006000200fa00ef
:10155800000f7800f01f20001e006000b00c88000b
:101568000080fa00000006000200fa00000f780070
:101578001e0078000000d100b00c88001e00780022
:10158800a00c88000080fa00000006000000fa00a5
:10159800c002a800c022a800c042a900c062a800da
:1015a800c082a900c842a800c882a900c8e2a90050
:1015b800c902a900c922a800c982a800c9a2a80016
:1015c800c9c2a800c9e2a800e004a900e024a90053
:1015d800e044a900e064a900e204a900e224a9000b
:1015e800e244a900e284a900e384a800e3a4a800d7
:1015f800e3c4a800e3e4a8000080fa0000000600a5
:101608000000fa00f07022005040880000632200b9
:1016180060408800303a200070408800007d20003b
:1016280080408800800c200090408800aafd0700b8
:101638001c000700d5ff0700adff070075ff070076
:1016480072fe07003efd070030c2bf000042b20034
:101658000004e000fcff3a004059280094fd070010
:04166800ffff370049
:020000040000fa
:10166c00000800005c000000000000005c080000a6
:10167c00120000000200000000000000000000004a
:10168c0000000000000000000000000000f4010059
:10169c006e080000020000000000000000000000c6
:020000040000fa
:1016ac000000fa000000eb00203a88004567a90012
:1016bc0042c7bf000042b2000004e000fcff320051
:0816cc000080fa000000060096
:00000001FF
