:020000040000fa
:080000000002040000000000f2
:020000040000fa
:100400002f8020000eff20000e0188000000000059
:100410000c000700e0502000010020001100070040
:10042000000020000000e000020032000000020096
:100430000000000000050200000000000040da009b
:100440000000fe004440a900200020000000e00061
:100450000300320000002000a00188004440a800f2
:100460000000060091018800800078000000eb0089
:1004700015003700e280400032a0b4009101ba00bc
:10048000e280400032a0b4009102ba00e280400055
:1004900032a0b4000002eb00472bde00f507b200eb
:1004a000602ce10004003a000059eb008301e900f0
:1004b000fdff3e00040037006128e100010032002a
:1004c0000082eb00040007001101ba000200e00006
:1004d000e8ff3a00000006003159ba008301e90044
:1004e0000c0032002159ba008301e90008003200f3
:1004f0000400e00003003a00e280400032a0b400b3
:10050000f5ff370011d9ba008301e900faff3a007c
:100510008100e800e180400032a0b4000000060045
:100520000040da000000fe00839f68000100e00048
:1005300002003d0060001000e08018000300e000b1
:1005400002003d0060011100e08119000500070074
:100550004f00e00002003b0060001000e080180047
:10056000000006006022b800060220000000d00053
:100570008180d2000482d2008582d2000000a000d7
:100580000202520083825a0003003100020242003c
:1005900083824a000000a1000603e900f3ff3a004d
:0405a0000000060051
:020000040000fa
:0200000401f009
:04000000ffff0000fe
:020000040000fa
:0200000401f009
:04000800ffff0000f6
:020000040000fa
:0200000401f009
:04000c001bff0000d6
:020000040000fa
:0200000401f009
:040010009aff000053
:020000040000fa
:0200000401f009
:040014005fff00008a
:020000040000fa
:0200000401f009
:04001800b7ff00002e
:020000040000fa
:0200000401f009
:04001c00feff0000e3
:020000040000fa
:1000080090020000900200009002000090020000a0
:100018009002000090020000900200009002000090
:1000280090020000900200009002000050030000bf
:100038009002000090020000900200009002000070
:100048009002000090020000900200009002000060
:100058009002000090020000900200009002000050
:100068009002000090020000900200009002000040
:100078009002000090020000900200009002000030
:100088009002000090020000900200009002000020
:100098009002000090020000e803000090020000b7
:1000a8009002000090020000900200009002000000
:1000b80090020000900200009002000090020000f0
:1000c80090020000900200009002000090020000e0
:1000d80090020000900200009002000090020000d0
:1000e80090020000900200009002000090020000c0
:1000f80090020000900200009002000090020000b0
:10010800900200009002000090020000900200009f
:10011800900200009002000090020000900200008f
:10012800900200009002000090020000900200007f
:10013800900200009002000090020000900200006f
:10014800900200009002000090020000900200005f
:10015800900200009002000090020000900200004f
:10016800900200009002000090020000900200003f
:10017800900200009002000090020000900200002f
:10018800900200009002000090020000900200001f
:10019800900200009002000090020000900200000f
:1001a80090020000900200009002000090020000ff
:1001b80090020000900200009002000090020000ef
:1001c80090020000900200009002000090020000df
:1001d80090020000900200009002000090020000cf
:1001e80090020000900200009002000090020000bf
:0801f8009002000090020000db
:020000040000fa
:10020800900200009002000090020000900200009e
:10021800900200009002000090020000900200008e
:1002280090020000900200009002000050030000bd
:10023800900200009002000090020000900200006e
:10024800900200009002000090020000900200005e
:10025800900200009002000090020000900200004e
:10026800900200009002000090020000900200003e
:10027800900200009002000090020000900200002e
:10028800900200009002000090020000900200001e
:100298009002000090020000e803000090020000b5
:1002a80090020000900200009002000090020000fe
:1002b80090020000900200009002000090020000ee
:1002c80090020000900200009002000090020000de
:1002d80090020000900200009002000090020000ce
:1002e80090020000900200009002000090020000be
:1002f80090020000900200009002000090020000ae
:10030800900200009002000090020000900200009d
:10031800900200009002000090020000900200008d
:10032800900200009002000090020000900200007d
:10033800900200009002000090020000900200006d
:10034800900200009002000090020000900200005d
:10035800900200009002000090020000900200004d
:10036800900200009002000090020000900200003d
:10037800900200009002000090020000900200002d
:10038800900200009002000090020000900200001d
:10039800900200009002000090020000900200000d
:1003a80090020000900200009002000090020000fd
:1003b80090020000900200009002000090020000ed
:1003c80090020000900200009002000090020000dd
:1003d80090020000900200009002000090020000cd
:1003e80090020000900200009002000090020000bd
:0803f8009002000090020000d9
:020000040000fa
:0405a400f40500005a
:020000040000fa
:1005a8000000fa000000eb00200888000000eb00c3
:1005b800000888000421a90041102000914078001b
:1005c80000c3b30000c0700004e1b700e0032000de
:1005d80010088800510a200091407800f0c8b30044
:1005e80000c060000044a000a5e0b7008460a90036
:1005f8009460a80005e1a8000080fa000000060049
:100608000600fa00c0002000a2000700000f7800d2
:10061800901684001e00500020079800ae0090003d
:10062800f01f2000808f500002003400f01f2000cf
:1006380020079800ae00900010c02f00808f500057
:1006480002003d0010c02f00200798002e009000e7
:100658000000e00007003d002e0090000000ea00c6
:100668004280de0020479800cc82a800c482a900fe
:10067800050037002e0090000080d1002047980028
:10068800cc82a900c482a8002e409000ca000700ae
:100698000080fa00000006003600f800809fbe00c7
:1006a800829fbe00849fbe00869fbe000000fa00a5
:1006b800d3ff07008460a9000080fa004f03be0042
:1006c8004f02be004f01be004f00be003600f900c9
:1006d800004006000200fa00000f78000000eb005e
:1006e8008011880031a2a9003182a9003162a900d5
:1006f8001123200091407800c0cfb30000c06000f3
:1007080031e2b70030e2a90030c2a90030a2a90046
:100718003082a9003062a9000123200091407800ae
:1007280090cfb30000c0600030e2b7003002a900eb
:100738000000eb00901188001e0078006101b900ec
:1007480000242400f100200075ff07000000e900e4
:10075800c0118800b3c0a800b3a0a900b380a90045
:10076800b340a800b320a900b300a9003342a800f1
:1007780097e0a80097c0a80031e2a8000080fa001e
:10078800000006000200fa00004f780033c2bf00e4
:10079800624060000004e000fcff3a001e00fb001d
:1007a800a011880033c2bf00614060000004e0006f
:1007b800fcff32000080fa00000006000000fa008a
:1007c8000080fa00000006003600f800809fbe0096
:1007d800829fbe00849fbe00869fbe000000fa0074
:1007e800f6ff070087c0a9000080fa004f03be008b
:1007f8004f02be004f01be004f00be003600f90098
:10080800004006000000fa0040c3bf006f406000cf
:1008180001c7b3000140700040e3b7001134200065
:1008280091407800c0cfb30000c0600041e3b7003a
:100838004043a80043c3bf00f043b20043e3b700fe
:10084800213420009140780030c8b30000c0600017
:1008580042e3b700f0c3b30044e3b70045c3bf00a9
:10086800f041b30045e3b70045e3a90049c3bf0021
:100878007f40600049e3b70041e3a800011a800007
:100888000040200000807000001a88000080fa00f4
:10089800000006000200fa00000f78001e00780031
:1008a8007f4060007f4160008134200091407800e3
:1008b80000ceb30000c060000240700048e3b700fb
:1008c80040c3bf00614060000004e000fcff32004c
:1008d8004003a900001880000080fa00000006000c
:1008e8000000fa00c002a800c022a800c042a90067
:1008f800c062a800c082a900c802a900c822a80036
:10090800c842a800c882a900c8e2a900c902a90073
:10091800c922a800c982a800c9a2a800c9c2a80003
:10092800c9e2a800e004a900e024a900e044a90065
:10093800e064a900e204a900e224a900e244a900b5
:10094800e284a900e384a800e3a4a800e3c4a80003
:10095800e3e4a8000080fa00000006000000fa00a6
:100968000000eb00800c88000000eb00900c880071
:1009780091c1bf00c041b30091e1b700f00720006a
:10098800b00c8800f00f2000a00c880092c1bf00b6
:10099800f041b30092e1b7000119200091407800be
:1009a80080cfb30000c060006040b30090e1b700a2
:1009b8000080fa00000006000200fa00004f7800ec
:1009c8001e80fb00b00c88000080fa0000000600c2
:1009d8000000fa000000eb00203a88004567a900f3
:1009e80042c7bf000042b2000004e000fcff320032
:1009f8000080fa00000006000000fa00f4ff07007b
:100a0800b7ff0700d5ff07007eff0700e4fe0700d9
:040a1800ffff3700a5
:020000040000fa
:100a1c0000080000020000000200000000000000be
:040a2c0000000000c6
:00000001FF
