:020000040000fa
:080000000002040000000000f2
:020000040000fa
:100400002f8120000eff20000e0188000000000058
:100410000c000700805a2000010020001100070096
:10042000000020000000e000020032000000020096
:1004300000000000d2050200000000000040da00c9
:100440000000fe004440a900200020000000e00061
:100450000300320000002000a00188004440a800f2
:100460000000060091018800800078000000eb0089
:1004700015003700e280400032a0b4009101ba00bc
:10048000e280400032a0b4009102ba00e280400055
:1004900032a0b4000002eb00472bde00f507b200eb
:1004a000602ce10004003a000059eb008301e900f0
:1004b000fdff3e00040037006128e100010032002a
:1004c0000082eb00040007001101ba000200e00006
:1004d000e8ff3a00000006003159ba008301e90044
:1004e0000c0032002159ba008301e90008003200f3
:1004f0000400e00003003a00e280400032a0b400b3
:10050000f5ff370011d9ba008301e900faff3a007c
:100510008100e800e180400032a0b4000000060045
:080520000040da000000fe00bb
:020000040000fa
:0200000401f009
:04000000ffff0000fe
:020000040000fa
:0200000401f009
:04000800ffff0000f6
:020000040000fa
:0200000401f009
:04000c001bff0000d6
:020000040000fa
:0200000401f009
:040010009aff000053
:020000040000fa
:0200000401f009
:040014005fff00008a
:020000040000fa
:0200000401f009
:04001800b7ff00002e
:020000040000fa
:0200000401f009
:04001c00feff0000e3
:020000040000fa
:1000080090020000900200009002000090020000a0
:100018009002000090020000900200009002000090
:10002800900200009002000090020000e603000029
:100038009002000090020000900200009002000070
:100048009002000090020000900200009002000060
:100058009002000090020000900200009002000050
:100068009002000090020000900200009002000040
:100078009002000090020000900200009002000030
:100088009002000090020000900200009002000020
:100098009002000090020000a804000090020000f6
:1000a8009002000090020000900200009002000000
:1000b80090020000900200009002000090020000f0
:1000c80090020000900200009002000090020000e0
:1000d80090020000900200009002000090020000d0
:1000e80090020000900200009002000090020000c0
:1000f80090020000900200009002000090020000b0
:10010800900200009002000090020000900200009f
:10011800900200009002000090020000900200008f
:10012800900200009002000090020000900200007f
:10013800900200009002000090020000900200006f
:10014800900200009002000090020000900200005f
:10015800900200009002000090020000900200004f
:10016800900200009002000090020000900200003f
:10017800900200009002000090020000900200002f
:10018800900200009002000090020000900200001f
:10019800900200009002000090020000900200000f
:1001a80090020000900200009002000090020000ff
:1001b80090020000900200009002000090020000ef
:1001c80090020000900200009002000090020000df
:1001d80090020000900200009002000090020000cf
:1001e80090020000900200009002000090020000bf
:0801f8009002000090020000db
:020000040000fa
:10020800900200009002000090020000900200009e
:10021800900200009002000090020000900200008e
:10022800900200009002000090020000e603000027
:10023800900200009002000090020000900200006e
:10024800900200009002000090020000900200005e
:10025800900200009002000090020000900200004e
:10026800900200009002000090020000900200003e
:10027800900200009002000090020000900200002e
:10028800900200009002000090020000900200001e
:100298009002000090020000a804000090020000f4
:1002a80090020000900200009002000090020000fe
:1002b80090020000900200009002000090020000ee
:1002c80090020000900200009002000090020000de
:1002d80090020000900200009002000090020000ce
:1002e80090020000900200009002000090020000be
:1002f80090020000900200009002000090020000ae
:10030800900200009002000090020000900200009d
:10031800900200009002000090020000900200008d
:10032800900200009002000090020000900200007d
:10033800900200009002000090020000900200006d
:10034800900200009002000090020000900200005d
:10035800900200009002000090020000900200004d
:10036800900200009002000090020000900200003d
:10037800900200009002000090020000900200002d
:10038800900200009002000090020000900200001d
:10039800900200009002000090020000900200000d
:1003a80090020000900200009002000090020000fd
:1003b80090020000900200009002000090020000ed
:1003c80090020000900200009002000090020000dd
:1003d80090020000900200009002000090020000cd
:1003e80090020000900200009002000090020000bd
:0803f8009002000090020000d9
:020000040000fa
:04052800f4050000d6
:020000040000fa
:10052c000000fa000000eb00200888000000eb003f
:10053c00000888000421a900411020009140780097
:10054c0000c3b30000c0700004e1b700e00320005a
:10055c0010088800510a200091407800f0c8b300c0
:10056c0000c060000044a000a5e0b7008460a900b2
:10057c009460a80005e1a8000080fa0000000600c5
:10058c000600fa00c000200021010700000f7800cf
:10059c00a01484001e00500020079800ae009000ac
:1005ac00f01f2000808f500002003400f01f20004c
:1005bc0020079800ae00900010c02f00808f5000d4
:1005cc0002003d0010c02f00200798002e00900064
:1005dc000000e00007003d002e0090000000ea0043
:1005ec004280de0020479800cc82a800c482a9007b
:1005fc00050037002e0090000080d10020479800a5
:10060c00cc82a900c482a8002e40900047010700ac
:10061c000080fa00000006000400fa00889fbe006b
:10062c00208020001000be002280200020019800b5
:10063c0031019800a08020001000be00a280200094
:10064c002001980031019800b0002000f000070054
:10065c00000f7800a01484001e001000cf80de0074
:10066c00228020000089be00a08020002002900083
:10067c00b00290008400780090002000000cb800bc
:10068c006020b90009017800000141006928b90017
:10069c000001410082047800208020001003be007d
:1006ac0086007800300c20000009b8006030b900da
:1006bc000302780000024200300c200000b8b900a0
:1006cc000002420084017800820278002080200021
:1006dc0020039000b003900086007800c00a200030
:1006ec000009b8006030b900030278000002420033
:1006fc00c00a200000b8b900000242008401780052
:10070c000200780000805200650040000801be0025
:10071c00000278000402e900030033008381d10059
:10072c000281d300fbff37000200be004b09dd0045
:10073c004500de0000007100c588de00a2802000ac
:10074c000089be00a08020001000be00e00f500009
:10075c00e08f58000c003d00a08020001000be006f
:10076c0060001000e0801800c809dd004800de00c1
:10077c0000807100c888de0020479800cc82a80059
:10078c00c482a90009003700a08020001000be0020
:10079c00480add004800de0000007200c888de0058
:1007ac0020479800cc82a900c482a8002e4090005b
:1007bc00de0007004f04be000080fa0000000600b7
:1007cc003600f800809fbe00829fbe00849fbe0052
:1007dc00869fbe000000fa008fff07008460a9000e
:1007ec000080fa004f03be004f02be004f01be0056
:1007fc004f00be003600f900004006000000fa0071
:10080c000000eb00c01188000000eb008011880094
:10081c0031a2a9003182a9003162a9001123200064
:10082c0091407800c0cfb30000c0600031e2b70047
:10083c0030e2a90030c2a90030a2a8003082a90081
:10084c003062a900012320009140780090cfb300c2
:10085c0000c0600030e2b7003002a9000000eb00dd
:10086c009011880033c2a90031e2a800310b20009e
:10087c009140780000c7b30000c07000b3e0b7002f
:10088c00310b20009140780080cfb30000c0600095
:10089c006040b300b3e0b7003342a80097e0a90072
:1008ac0097c0a8000080fa00000006000200fa00c1
:1008bc00004f780033c2bf00624060000004e000cb
:1008cc00fcff3a001e00fb00a011880033c2bf00e1
:1008dc00614060000004e000fcff32000080fa0080
:1008ec00000006000400fa00100798000000eb005e
:1008fc00000f7800070037001e0078008000780099
:10090c001e0090000080400010407800e7ff0700b8
:10091c001e0fe8001e007800800078001e0090007a
:10092c0000804000104078000004e000f2ff3a0024
:10093c000080fa00000006000000fa000080fa00b7
:10094c00000006003600f800809fbe00829fbe00ab
:10095c00849fbe00869fbe000000fa00f6ff0700d1
:10096c0087c0a9000080fa004f03be004f02be00f2
:10097c004f01be004f00be003600f90000400600db
:10098c000000fa0040c3bf006f40600001c7b30015
:10099c000140700040e3b700113420009140780012
:1009ac00c0cfb30000c0600041e3b7004043a800d3
:1009bc0043c3bf00f043b20043e3b700213420002f
:1009cc009140780030c8b30000c0600042e3b7002b
:1009dc00f0c3b30044e3b70045c3bf00f041b3001c
:1009ec0045e3b70045e3a90049c3bf007f40600061
:1009fc0049e3b70041e3a800011a80000040200041
:100a0c0000807000001a88000080fa0000000600c8
:100a1c000200fa00000f78001e0078007f40600092
:100a2c007f416000813420009140780000ceb300fb
:100a3c0000c060000240700048e3b70040c3bf0034
:100a4c00614060000004e000fcff32004003a9009c
:100a5c00001880000080fa00000006000000fa0078
:100a6c00c002a800c022a800c042a900c062a80011
:100a7c00c082a900c842a800c882a900c8e2a90087
:100a8c00c902a900c922a800c982a800c9a2a8004d
:100a9c00c9c2a800c9e2a800e004a900e024a9008a
:100aac00e044a900e064a900e204a900e224a90042
:100abc00e244a900e284a900e384a800e3a4a8000e
:100acc00e3c4a800e3e4a8000080fa0000000600dc
:100adc000000fa000000eb00800c88000000eb0026
:100aec00900c880091c1bf00c041b30091e1b700e8
:100afc00f0072000b00c8800f00f2000a00c88003c
:100b0c0092c1bf00f041b30092e1b700011920007f
:100b1c009140780080cfb30000c060006040b3000b
:100b2c0090e1b7000080fa00000006000200fa0015
:100b3c00004f78001e80fb00b00c88000080fa008b
:040b4c00000006009f
:020000040000fa
:100b5000000800000a000000020000000000f4008d
:100b60000500000000000000000000000a0800006e
:0c0b700008000000000000000000000071
:020000040000fa
:100b7c000000fa000000eb00203a88004567a9004d
:100b8c0042c7bf000042b2000004e000fcff32008c
:100b9c000080fa00000006000000fa00f4ff0700d5
:100bac00aeff0700caff070075ff07005cfe0700d9
:040bbc00ffff370000
:00000001FF
