:020000040000fa
:080000000002040000000000f2
:020000040000fa
:100400002f8020000eff20000e0188000000000059
:100410000c0007000041200001002000110007002f
:10042000000020000000e000020032000000020096
:100430000000000032030200000000000040da006b
:100440000000fe004440a900000020000000e00081
:100450000300320000002000a00188004440a800f2
:100460000000060091018800800078000000eb0089
:1004700015003700e280400032a0b4009101ba00bc
:10048000e280400032a0b4009102ba00e280400055
:1004900032a0b4000002eb00472bde00f507b200eb
:1004a000602ce10004003a000059eb008301e900f0
:1004b000fdff3e00040037006128e100010032002a
:1004c0000082eb00040007001101ba000200e00006
:1004d000e8ff3a00000006003159ba008301e90044
:1004e0000c0032002159ba008301e90008003200f3
:1004f0000400e00003003a00e280400032a0b400b3
:10050000f5ff370011d9ba008301e900faff3a007c
:100510008100e800e180400032a0b4000000060045
:080520000040da000000fe00bb
:020000040000fa
:0200000401f009
:04000000ffff0000fe
:020000040000fa
:0200000401f009
:04000800ffff0000f6
:020000040000fa
:0200000401f009
:04000c003bff0000b6
:020000040000fa
:0200000401f009
:040010009aff000053
:020000040000fa
:0200000401f009
:040014005fff00008a
:020000040000fa
:0200000401f009
:04001800b7ff00002e
:020000040000fa
:0200000401f009
:04001c00feff0000e3
:020000040000fa
:1000080090020000900200009002000090020000a0
:100018009002000090020000900200009002000090
:10002800900200009002000090020000f40200001c
:100038009002000090020000900200009002000070
:100048009002000090020000900200009002000060
:100058009002000090020000900200009002000050
:100068009002000090020000900200009002000040
:100078009002000090020000900200009002000030
:100088009002000090020000900200009002000020
:100098009002000090020000900200009002000010
:1000a8009002000090020000900200009002000000
:1000b80090020000900200009002000090020000f0
:1000c80090020000900200009002000090020000e0
:1000d80090020000900200009002000090020000d0
:1000e80090020000900200009002000090020000c0
:1000f80090020000900200009002000090020000b0
:10010800900200009002000090020000900200009f
:10011800900200009002000090020000900200008f
:10012800900200009002000090020000900200007f
:10013800900200009002000090020000900200006f
:10014800900200009002000090020000900200005f
:10015800900200009002000090020000900200004f
:10016800900200009002000090020000900200003f
:10017800900200009002000090020000900200002f
:10018800900200009002000090020000900200001f
:10019800900200009002000090020000900200000f
:1001a80090020000900200009002000090020000ff
:1001b80090020000900200009002000090020000ef
:1001c80090020000900200009002000090020000df
:1001d80090020000900200009002000090020000cf
:1001e80090020000900200009002000090020000bf
:0801f8009002000090020000db
:020000040000fa
:10020800900200009002000090020000900200009e
:10021800900200009002000090020000900200008e
:10022800900200009002000090020000f40200001a
:10023800900200009002000090020000900200006e
:10024800900200009002000090020000900200005e
:10025800900200009002000090020000900200004e
:10026800900200009002000090020000900200003e
:10027800900200009002000090020000900200002e
:10028800900200009002000090020000900200001e
:10029800900200009002000090020000900200000e
:1002a80090020000900200009002000090020000fe
:1002b80090020000900200009002000090020000ee
:1002c80090020000900200009002000090020000de
:1002d80090020000900200009002000090020000ce
:1002e80090020000900200009002000090020000be
:1002f80090020000900200009002000090020000ae
:10030800900200009002000090020000900200009d
:10031800900200009002000090020000900200008d
:10032800900200009002000090020000900200007d
:10033800900200009002000090020000900200006d
:10034800900200009002000090020000900200005d
:10035800900200009002000090020000900200004d
:10036800900200009002000090020000900200003d
:10037800900200009002000090020000900200002d
:10038800900200009002000090020000900200001d
:10039800900200009002000090020000900200000d
:1003a80090020000900200009002000090020000fd
:1003b80090020000900200009002000090020000ed
:1003c80090020000900200009002000090020000dd
:1003d80090020000900200009002000090020000cd
:1003e80090020000900200009002000090020000bd
:0803f8009002000090020000d9
:020000040000fa
:100528000000fa0040c3bf006f40600040e3b7001e
:100538001134200091407800c0cfb30000c06000a3
:1005480041e3b7004043a80043c3bf00f043b200f3
:1005580043e3b700213420009140780030c8b3004d
:1005680000c0600042e3b700f0c3b30044e3b70043
:1005780045e3a90049c3bf007f40600049e3b700d5
:100588000080fa00000006000400fa001007980036
:100598001e0090007f4060007f4160009134200081
:1005a8009140780000ceb30000c0600002407000a7
:1005b80049e3b7004023a80041e3a80040c3bf00b7
:1005c800614060000004e000fcff32000018800079
:1005d800000f78001e0078000080fa000000060076
:1005e80000a0fe003400f800881f780008002000f2
:1005f800a80188004f0478000000fa008460a90070
:10060800cbc2bf000004a2006140600061406000ee
:100618006140600061416000b12c20009140780089
:10062800e0cfb30000c0600002407000cbe2b7002a
:1006380001408000f0cf2700808f500002003e006c
:10064800cb22a90001003700cb22a8000080fa00c5
:100658003400f9000080fe00004006000000fa00a7
:10066800630007002b0007000500070050c4b30013
:100678001a00070046000700a9ff0700ffff370020
:100688000000fa000000eb00800c88000000eb007e
:10069800900c880091c1bf00c041b30091e1b70040
:1006a800f0072000b00c8800f00f2000a00c880094
:1006b80092c1bf00f041b30092e1b70001192000d8
:1006c8009140780080cfb30000c060006040b30064
:1006d80090e1b7000080fa00000006000400fa006c
:1006e800204798002e4090008000fb00f00f20006b
:1006f8000088b90042062000110009000200d80055
:10070800000f78001e007800b00c88000080fa0006
:10071800000006000000fa00c002a800c022a800dd
:10072800c042a900c062a800c082a900c802a900ee
:10073800c822a800c842a800c882a900c8e2a90027
:10074800c902a900c922a800c982a800c9a2a80094
:10075800c9c2a800c9e2a800e004a900e024a900d1
:10076800e044a900e064a900e204a900e224a90089
:10077800e244a900e284a900e384a800e3a4a80055
:10078800e3c4a800e3e4a8000080fa000000060023
:100798000000fa000000eb00200888000000eb00d1
:1007a80000088800411020009140780000c3b30081
:1007b80000c0700004e1b7000421a9004001200036
:1007c80010088800510a200091407800f0c8b30052
:1007d80000c060000044a000a5e0b7008460a90044
:1007e8009460a80005e1a8000080fa000000060057
:1007f8000000fa000000eb00203a88004567a900d5
:1008080042c7bf000042b2000004e000fcff320013
:080818000080fa000000060058
:020000040000fa
:1008200000080000020000000200000000000000bc
:0408300000000000c4
:00000001FF
