:020000040000fa
:080000000002040000000000f2
:020000040000fa
:100400002f8120000eff20000e0188000000000058
:100410000c000700208220000100200011000700ce
:10042000000020000000e000020032000000020096
:100430000000000032080200000000000040da0066
:100440000000fe004440a900200020000000e00061
:100450000300320000002000a00188004440a800f2
:100460000000060091018800800078000000eb0089
:1004700015003700e280400032a0b4009101ba00bc
:10048000e280400032a0b4009102ba00e280400055
:1004900032a0b4000002eb00472bde00f507b200eb
:1004a000602ce10004003a000059eb008301e900f0
:1004b000fdff3e00040037006128e100010032002a
:1004c0000082eb00040007001101ba000200e00006
:1004d000e8ff3a00000006003159ba008301e90044
:1004e0000c0032002159ba008301e90008003200f3
:1004f0000400e00003003a00e280400032a0b400b3
:10050000f5ff370011d9ba008301e900faff3a007c
:100510008100e800e180400032a0b4000000060045
:100520000040da000000fe0003f0a200889fbe0039
:100530008a9fbe008c1f7800e0000700e7003300b0
:100540006450e1004f0032006420e10052003200ac
:1005500003826c0007003b000905d0000306d000b1
:10056000820f54000c065d000200390002003200c8
:1005700089017800030678008582550004003d005b
:100580000003fd008103fd008502ea008b85420027
:10059000840f720002003b0060001000e080180031
:1005a0006011b8000005eb007a28e1000a0039006c
:1005b00006007800c75ddd00f707b2008780750090
:1005c0002d003700828171000a017800610560000a
:1005d0008180d1000080d3008502e900f9ff3b0053
:1005e000060440008784480002003b0060041400b9
:1005f000e0841c000988a300070032008a81710092
:1006000082817100610164008904d1000884d300f3
:100610008b05e800170037000978a30013003a00a3
:100620000b00e000130034008b05e90008044400cf
:1006300089844c000a4474000978a3000d003a0034
:100640000b00e000070034008b05e90008044400bb
:1006500089844c0001003a000b0020000978a300b7
:10066000f7ff32000001eb000200370082817100c9
:100670000a017800560007000cf0a70001f0a00066
:100680009f0037006420e10002003a00838f6c0075
:100690009f0033000801be000200be009800370032
:1006a0000001be00700007000470a70003f0a10065
:1006b0006509b100160032000d0035006828e10020
:1006c00006003500f0ff2f00f1ff27000300e000d7
:1006d00013003b000100280000000500000040005e
:1006e000818048008502e900fcff3a0008003700dd
:1006f000f88f420002003c008000eb000000050083
:100700008100d1000080d3008502e800fcff3a00a0
:100710000300e00002003b0060001000e0801800d1
:1007200000000600889fbe008a9fbe000105780079
:100730000100e0000400350008003c000000e0007b
:10074000200032000500370060001000e080180033
:1007500002003b0001f02c001a0037000004be002c
:100760006011b8006b0920000982cf000200390037
:100770000882cf000441b000694252000e003200ee
:1007800008003b0082817100610164008904d1008e
:100790000884d3008b05e8000442e800f9ff3a0022
:1007a000050037000804440089844c008b05e900eb
:1007b0000442e900fbff3a00050007000af0a70029
:1007c00001f0a0004f05be004f04be00000006006f
:1007d00081002000618055000b003d000b002000cf
:1007e00061fe2f000100e1001d00340082817100d4
:1007f000610164008904d1000884d3000000e8008e
:10080000faff3a00710020006100640003007000ec
:10081000020060000900320061044400e0844c00e2
:100820000988a500050032008b05e8006808e10092
:1008300002003a008904d1000884d300f20f20009e
:100840000258e10005003d00c75ddd00f907b20078
:100850008980750008007800000006000bf827006a
:100860008b00780000000500c70ade00f107b20027
:10087000f50fb20008003200e1cf42000200320062
:100880000170a00024000500810f700001003200fb
:100890000408050044000500810f700002003a00c2
:1008a000140005008502e9000000400081c04800f6
:1008b000fcff3b000170a000240005000004be0006
:1008c000e9ff07000003be000405be000200be00f1
:1008d000e5ff0700844f7500000006000200be001f
:1008e0006450e100050036006420e100020036009b
:1008f0000968a30001003a000800be000160a000e2
:100900004f0678004f05be004f04be0000000600f1
:10091000f0ff2f00f1ff2700f9ff3700889fbe008e
:100920008a9fbe008c1f7800e4ff0700ebff3300b6
:1009300003866c006450e100240032006420e10072
:10094000270032006150e100220032006120e10006
:10095000210032008b854200eb07b1000134b80062
:10096000003ab8000804420089844a00013ab800fd
:100970000030b8008880400009014a0004003300bc
:100980000000400081804800020149008b05e90019
:10099000c909dd008301700001003200130020004e
:1009a000c814de004814dd004709de001200b20062
:1009b000c808de000884700085ff070001f0a10070
:1009c0000cf0a70001f0a000cdff37006120e1008e
:1009d000cfff32000801be000200be00f7ff370063
:0c09e0006150e100fcff3a00c9ff370045
:020000040000fa
:0200000401f009
:04000000ffff0000fe
:020000040000fa
:0200000401f009
:04000800ffff0000f6
:020000040000fa
:0200000401f009
:04000c001bff0000d6
:020000040000fa
:0200000401f009
:040010009aff000053
:020000040000fa
:0200000401f009
:040014005fff00008a
:020000040000fa
:0200000401f009
:04001800b7ff00002e
:020000040000fa
:0200000401f009
:04001c00feff0000e3
:020000040000fa
:1000080090020000900200009002000090020000a0
:100018009002000090020000900200009002000090
:100028009002000090020000900200004c060000c0
:100038009002000090020000900200009002000070
:100048009002000090020000900200009002000060
:100058009002000090020000900200009002000050
:100068009002000090020000900200009002000040
:100078009002000090020000900200009002000030
:100088009002000090020000900200009002000020
:1000980090020000900200000e070000900200008d
:1000a8009002000090020000900200009002000000
:1000b80090020000900200009002000090020000f0
:1000c80090020000900200009002000090020000e0
:1000d80090020000900200009002000090020000d0
:1000e80090020000900200009002000090020000c0
:1000f80090020000900200009002000090020000b0
:10010800900200009002000090020000900200009f
:10011800900200009002000090020000900200008f
:10012800900200009002000090020000900200007f
:10013800900200009002000090020000900200006f
:10014800900200009002000090020000900200005f
:10015800900200009002000090020000900200004f
:10016800900200009002000090020000900200003f
:10017800900200009002000090020000900200002f
:10018800900200009002000090020000900200001f
:10019800900200009002000090020000900200000f
:1001a80090020000900200009002000090020000ff
:1001b80090020000900200009002000090020000ef
:1001c80090020000900200009002000090020000df
:1001d80090020000900200009002000090020000cf
:1001e80090020000900200009002000090020000bf
:0801f8009002000090020000db
:020000040000fa
:10020800900200009002000090020000900200009e
:10021800900200009002000090020000900200008e
:100228009002000090020000900200004c060000be
:10023800900200009002000090020000900200006e
:10024800900200009002000090020000900200005e
:10025800900200009002000090020000900200004e
:10026800900200009002000090020000900200003e
:10027800900200009002000090020000900200002e
:10028800900200009002000090020000900200001e
:1002980090020000900200000e070000900200008b
:1002a80090020000900200009002000090020000fe
:1002b80090020000900200009002000090020000ee
:1002c80090020000900200009002000090020000de
:1002d80090020000900200009002000090020000ce
:1002e80090020000900200009002000090020000be
:1002f80090020000900200009002000090020000ae
:10030800900200009002000090020000900200009d
:10031800900200009002000090020000900200008d
:10032800900200009002000090020000900200007d
:10033800900200009002000090020000900200006d
:10034800900200009002000090020000900200005d
:10035800900200009002000090020000900200004d
:10036800900200009002000090020000900200003d
:10037800900200009002000090020000900200002d
:10038800900200009002000090020000900200001d
:10039800900200009002000090020000900200000d
:1003a80090020000900200009002000090020000fd
:1003b80090020000900200009002000090020000ed
:1003c80090020000900200009002000090020000dd
:1003d80090020000900200009002000090020000cd
:1003e80090020000900200009002000090020000bd
:0803f8009002000090020000d9
:020000040000fa
:0409ec00f40500000e
:020000040000fa
:1009f0000000fa000000eb00200888000000eb0077
:100a0000000888000421a9004110200091407800ce
:100a100000c3b30000c0700004e1b700800f2000e5
:100a200010088800510a200091407800f0c8b300f7
:100a300000c060000044a000a5e0b7008460a900e9
:100a40009460a80005e1a8000080fa0000000600fc
:100a50000600fa00c000200023010700000f780004
:100a6000b02784001e00500020079800ae009000c0
:100a7000f01f2000808f500002003400f01f200083
:100a800020079800ae00900010c02f00808f50000b
:100a900002003d0010c02f00200798002e0090009b
:100aa0000000e00007003d002e0090000000ea007a
:100ab0004280de0020479800cc82a800c482a900b2
:100ac000050037002e0090000080d10020479800dc
:100ad000cc82a900c482a8002e40900049010700e2
:100ae0000080fa00000006000400fa00889fbe00a3
:100af000b0002000fc000700000f7800b027840041
:100b00001e001000cf80de000040880011408800e9
:100b1000604080007140800002ff070072912d004c
:100b2000e3e823007dff07000004be0000408000d2
:100b300011408000fbfe0700027f2a00230c2400e6
:100b400076ff07000001be000800be0077fe070028
:100b50000004be002040800031408000f1fe07000c
:100b600012582900b30a2c006cff07000001be00d8
:100b70000800be006dfe0700c9fe07004040880067
:100b80005140880040408000514080004209dd0013
:100b9000ce00de00810071004200dd004040880090
:100ba000514088004240800053408000f0ff2f00f9
:100bb00001002000800f5100818f59000400340093
:100bc000f0ff2f00010020004040880051408800c5
:100bd000424080005340800010002000f1ff2f00b1
:100be000800f5100818f590004003d00100020004b
:100bf000f1ff2f00404088005140880040408000b5
:100c000051408000e00f5000e08f58000c003d0084
:100c1000404080005140800060001000e0801800db
:100c20004909dd004700de0000007100c788de00d2
:100c300020479800cc82a800c482a9000900370090
:100c400040408000514080004909dd004700de003f
:100c500000007100c788de0020479800cc82a90000
:100c6000c482a8002e409000e600070000408000eb
:100c700011408000204088003140880040408000c2
:100c80005140800060408800714088004f04be00e1
:100c90000080fa00000006003600f800809fbe00c9
:100ca000829fbe00849fbe00869fbe000000fa00a7
:100cb00067ff07008460a9000080fa004f03be00b0
:100cc0004f02be004f01be004f00be003600f900cb
:100cd000004006000000fa000000eb00c011880090
:100ce0000000eb008011880031a2a9003182a90028
:100cf0003162a9001123200091407800c0cfb300d9
:100d000000c0600031e2b70030e2a90030c2a900a3
:100d100030a2a8003082a9003062a900012320007f
:100d20009140780090cfb30000c0600030e2b7007f
:100d30003002a9000000eb009011880033c2a90026
:100d400031e2a800310b20009140780000c7b300c9
:100d500000c07000b3e0b700310b20009140780074
:100d600080cfb30000c060006040b300b3e0b700c4
:100d70003342a80097e0a90097c0a8000080fa00bd
:100d8000000006000200fa00004f780033c2bf00e6
:100d9000624060000004e000fcff3a001e00fb001f
:100da000a011880033c2bf00614060000004e00071
:100db000fcff32000080fa00000006000400fa0088
:100dc000100798000000eb00000f780007003700c4
:100dd0001e007800800078001e0090000080400017
:100de00010407800e7ff07001e0fe8001e007800a3
:100df000800078001e0090000080400010407800c5
:100e00000004e000f2ff3a000080fa000000060053
:100e10000000fa000080fa00000006003600f8002a
:100e2000809fbe00829fbe00849fbe00869fbe0042
:100e30000000fa00f6ff070087c0a9000080fa0052
:100e40004f03be004f02be004f01be004f00be0068
:100e50003600f900004006000000fa0040c3bf0061
:100e60006f40600001c7b3000140700040e3b7006d
:100e70001134200091407800c0cfb30000c0600062
:100e800041e3b7004043a80043c3bf00f043b200b2
:100e900043e3b700213420009140780030c8b3000c
:100ea00000c0600042e3b700f0c3b30044e3b70002
:100eb00045c3bf00f041b30045e3b70045e3a900d7
:100ec00049c3bf007f40600049e3b70041e3a80089
:100ed000011a80000040200000807000001a880085
:100ee0000080fa00000006000200fa00000f7800ff
:100ef0001e0078007f4060007f4160008134200048
:100f00009140780000ceb30000c060000240700045
:100f100048e3b70040c3bf00614060000004e00048
:100f2000fcff32004003a900001880000080fa0096
:100f3000000006000000fa00c002a800c022a800bd
:100f4000c042a900c062a800c082a900c842a8008f
:100f5000c882a900c8e2a900c902a900c922a80044
:100f6000c982a800c9a2a800c9c2a800c9e2a800f5
:100f7000e004a900e024a900e044a900e064a9007d
:100f8000e204a900e224a900e244a900e284a90045
:100f9000e384a800e3a4a800e3c4a800e3e4a80055
:100fa0000080fa00000006000000fa000000eb00dc
:100fb000800c88000000eb00900c880091c1bf00fd
:100fc000c041b30091e1b700f0072000b00c8800e9
:100fd000f00f2000a00c880092c1bf00f041b300c8
:100fe00092e1b700011920009140780080cfb30052
:100ff00000c060006040b30090e1b7000080fa00dc
:10100000000006000200fa00004f78001e80fb007e
:10101000b00c88000080fa00000006000000fa0012
:101020000000eb00203a88004567a90042c7bf00d6
:101030000042b2000004e000fcff32000080fa0031
:0410400000000600a6
:020000040000fa
:101044001008000002000000020000000000000080
:101054000008000010000000000000000000000074
:020000040000fa
:101064000000fa00ecff0700b1ff0700cdff070006
:0c10740078ff07005dfe0700ffff37005b
:00000001FF
